{
  "_format": "hh-sol-artifact-1",
  "contractName": "TodoList",
  "sourceName": "contracts/TodoList.sol",
  "abi": [
    {
      "inputs": [],
      "stateMutability": "nonpayable",
      "type": "constructor"
    },
    {
      "anonymous": false,
      "inputs": [
        {
          "indexed": false,
          "internalType": "uint256",
          "name": "id",
          "type": "uint256"
        },
        {
          "indexed": false,
          "internalType": "string",
          "name": "content",
          "type": "string"
        }
      ],
      "name": "Created",
      "type": "event"
    },
    {
      "anonymous": false,
      "inputs": [
        {
          "indexed": false,
          "internalType": "uint256",
          "name": "id",
          "type": "uint256"
        },
        {
          "indexed": false,
          "internalType": "bool",
          "name": "completed",
          "type": "bool"
        }
      ],
      "name": "UpdatedIsCompleted",
      "type": "event"
    },
    {
      "inputs": [
        {
          "internalType": "string",
          "name": "_content",
          "type": "string"
        }
      ],
      "name": "createTask",
      "outputs": [],
      "stateMutability": "nonpayable",
      "type": "function"
    },
    {
      "inputs": [],
      "name": "taskCount",
      "outputs": [
        {
          "internalType": "uint256",
          "name": "",
          "type": "uint256"
        }
      ],
      "stateMutability": "view",
      "type": "function"
    },
    {
      "inputs": [
        {
          "internalType": "uint256",
          "name": "",
          "type": "uint256"
        }
      ],
      "name": "tasks",
      "outputs": [
        {
          "internalType": "uint256",
          "name": "id",
          "type": "uint256"
        },
        {
          "internalType": "string",
          "name": "content",
          "type": "string"
        },
        {
          "internalType": "bool",
          "name": "isCompleted",
          "type": "bool"
        }
      ],
      "stateMutability": "view",
      "type": "function"
    },
    {
      "inputs": [
        {
          "internalType": "uint256",
          "name": "_id",
          "type": "uint256"
        }
      ],
      "name": "toggleIsCompleted",
      "outputs": [],
      "stateMutability": "nonpayable",
      "type": "function"
    }
  ],
  "bytecode": "0x6080604052600080553480156200001557600080fd5b506200005c6040518060400160405280600c81526020017f496e697469616c204461746100000000000000000000000000000000000000008152506200006260201b60201c565b620003c0565b600080815480929190620000769062000303565b919050555060405180606001604052806000548152602001828152602001600015158152506001600080548152602001908152602001600020600082015181600001556020820151816001019080519060200190620000d79291906200013b565b5060408201518160020160006101000a81548160ff0219169083151502179055509050507f8304eea71399999aba5c87c24c7fbc7cb6fce2f02b9b5983fda2636b86df8d0a60005482604051620001309291906200023d565b60405180910390a150565b8280546200014990620002cd565b90600052602060002090601f0160209004810192826200016d5760008555620001b9565b82601f106200018857805160ff1916838001178555620001b9565b82800160010185558215620001b9579182015b82811115620001b85782518255916020019190600101906200019b565b5b509050620001c89190620001cc565b5090565b5b80821115620001e7576000816000905550600101620001cd565b5090565b6000620001f88262000271565b6200020481856200027c565b93506200021681856020860162000297565b6200022181620003af565b840191505092915050565b62000237816200028d565b82525050565b60006040820190506200025460008301856200022c565b8181036020830152620002688184620001eb565b90509392505050565b600081519050919050565b600082825260208201905092915050565b6000819050919050565b60005b83811015620002b75780820151818401526020810190506200029a565b83811115620002c7576000848401525b50505050565b60006002820490506001821680620002e657607f821691505b60208210811415620002fd57620002fc62000380565b5b50919050565b600062000310826200028d565b91507fffffffffffffffffffffffffffffffffffffffffffffffffffffffffffffffff82141562000346576200034562000351565b5b600182019050919050565b7f4e487b7100000000000000000000000000000000000000000000000000000000600052601160045260246000fd5b7f4e487b7100000000000000000000000000000000000000000000000000000000600052602260045260246000fd5b6000601f19601f8301169050919050565b6108f280620003d06000396000f3fe608060405234801561001057600080fd5b506004361061004c5760003560e01c8063111002aa146100515780638d9776721461006d578063b6cb58a51461009f578063bc9639b2146100bd575b600080fd5b61006b6004803603810190610066919061051e565b6100d9565b005b6100876004803603810190610082919061055f565b6101ac565b60405161009693929190610653565b60405180910390f35b6100a761026b565b6040516100b491906105df565b60405180910390f35b6100d760048036038101906100d2919061055f565b610271565b005b6000808154809291906100eb906107be565b91905055506040518060600160405280600054815260200182815260200160001515815250600160008054815260200190815260200160002060008201518160000155602082015181600101908051906020019061014a9291906103fe565b5060408201518160020160006101000a81548160ff0219169083151502179055509050507f8304eea71399999aba5c87c24c7fbc7cb6fce2f02b9b5983fda2636b86df8d0a600054826040516101a1929190610623565b60405180910390a150565b60016020528060005260406000206000915090508060000154908060010180546101d59061075b565b80601f01602080910402602001604051908101604052809291908181526020018280546102019061075b565b801561024e5780601f106102235761010080835404028352916020019161024e565b820191906000526020600020905b81548152906001019060200180831161023157829003601f168201915b5050505050908060020160009054906101000a900460ff16905083565b60005481565b600060016000838152602001908152602001600020604051806060016040529081600082015481526020016001820180546102ab9061075b565b80601f01602080910402602001604051908101604052809291908181526020018280546102d79061075b565b80156103245780601f106102f957610100808354040283529160200191610324565b820191906000526020600020905b81548152906001019060200180831161030757829003601f168201915b505050505081526020016002820160009054906101000a900460ff161515151581525050905080604001511581604001901515908115158152505080600160008481526020019081526020016000206000820151816000015560208201518160010190805190602001906103999291906103fe565b5060408201518160020160006101000a81548160ff0219169083151502179055509050507ffb8fc4ff13254a21dee5744803d6f127ef77693e057700b05a96b0b2b0ffaf828282604001516040516103f29291906105fa565b60405180910390a15050565b82805461040a9061075b565b90600052602060002090601f01602090048101928261042c5760008555610473565b82601f1061044557805160ff1916838001178555610473565b82800160010185558215610473579182015b82811115610472578251825591602001919060010190610457565b5b5090506104809190610484565b5090565b5b8082111561049d576000816000905550600101610485565b5090565b60006104b46104af846106b6565b610691565b9050828152602081018484840111156104cc57600080fd5b6104d7848285610719565b509392505050565b600082601f8301126104f057600080fd5b81356105008482602086016104a1565b91505092915050565b600081359050610518816108a5565b92915050565b60006020828403121561053057600080fd5b600082013567ffffffffffffffff81111561054a57600080fd5b610556848285016104df565b91505092915050565b60006020828403121561057157600080fd5b600061057f84828501610509565b91505092915050565b61059181610703565b82525050565b60006105a2826106e7565b6105ac81856106f2565b93506105bc818560208601610728565b6105c581610894565b840191505092915050565b6105d98161070f565b82525050565b60006020820190506105f460008301846105d0565b92915050565b600060408201905061060f60008301856105d0565b61061c6020830184610588565b9392505050565b600060408201905061063860008301856105d0565b818103602083015261064a8184610597565b90509392505050565b600060608201905061066860008301866105d0565b818103602083015261067a8185610597565b90506106896040830184610588565b949350505050565b600061069b6106ac565b90506106a7828261078d565b919050565b6000604051905090565b600067ffffffffffffffff8211156106d1576106d0610865565b5b6106da82610894565b9050602081019050919050565b600081519050919050565b600082825260208201905092915050565b60008115159050919050565b6000819050919050565b82818337600083830152505050565b60005b8381101561074657808201518184015260208101905061072b565b83811115610755576000848401525b50505050565b6000600282049050600182168061077357607f821691505b6020821081141561078757610786610836565b5b50919050565b61079682610894565b810181811067ffffffffffffffff821117156107b5576107b4610865565b5b80604052505050565b60006107c98261070f565b91507fffffffffffffffffffffffffffffffffffffffffffffffffffffffffffffffff8214156107fc576107fb610807565b5b600182019050919050565b7f4e487b7100000000000000000000000000000000000000000000000000000000600052601160045260246000fd5b7f4e487b7100000000000000000000000000000000000000000000000000000000600052602260045260246000fd5b7f4e487b7100000000000000000000000000000000000000000000000000000000600052604160045260246000fd5b6000601f19601f8301169050919050565b6108ae8161070f565b81146108b957600080fd5b5056fea264697066735822122060d0db05fab4eea69998fa598f1799c1660332059df5372dd954ac3378fb114264736f6c63430008040033",
  "linkReferences": {},
  "deployedLinkReferences": {}
}